:100000000C942A000C9434000C9434000C943400AA
:100010000C9434000C9434000C9434000C94340090
:100020000C9434000C9434000C9434000C94340080
:100030000C9434000C9434000C9434000C94340070
:100040000C9434000C9434000C9434000C94340060
:100050000C94340011241FBECFE5D8E0DEBFCDBF25
:100060000E943C000C944B000C940000A0913B00BB
:10007000A827A0933B0008958FEF8ABB80E20E94DF
:1000800036002FEF89E698E1215080409040E1F75B
:0A00900000C00000F3CFF894FFCF8A
:00000001FF
