:100000000C942A000C9447000C9447000C94470071
:100010000C9447000C9447000C9447000C94470044
:100020000C9447000C9447000C944F0A0C94470022
:100030000C9447000C9447000C9447000C94470024
:100040000C9447000C9447000C9447000C94470014
:100050000C94470011241FBECFE5D8E0DEBFCDBF12
:1000600011E0A0E6B0E0E8EDF7E102C005900D92E6
:10007000A031B107D9F727E0A0E1B1E001C01D929E
:10008000A23CB207E1F70E94A6090C94EA0B0C947B
:100090000000F8940E94A602A82FB92F0D901C9082
:1000A0000DBE1EBEFF91EF91DF91CF91BF91AF9139
:1000B0009F918F917F916F915F914F913F912F9180
:1000C0001F910F91FF90EF90DF90CF90BF90AF9076
:1000D0009F908F907F906F905F904F903F902F9068
:1000E0001F900F900FBE0F907894089598B39F7053
:1000F000282F207F922B98BBC098C19A32E03A9566
:10010000F1F700C0C198EFE8F1E03197F1F700C0D6
:10011000000028B32F70F0E18F9FC0011124822BC3
:1001200088BBC19A32E03A95F1F700C0C1988FE9D7
:100130009FE00197F1F700C00000089598B39F7009
:10014000282F207F922B98BBC09AC19A32E03A9513
:10015000F1F700C0C198EFE8F1E03197F1F700C086
:10016000000028B32F70F0E18F9FC0011124822B73
:1001700088BBC19A32E03A95F1F700C0C1988FE987
:100180009FE00197F1F700C0000008958FEF87BB53
:100190008FE39CE90197F1F700C0000082E00E9424
:1001A000760088E20E9476008CE00E94760086E06D
:1001B0000E94760081E00E9476008FE99FE001971F
:1001C000F1F700C000000895CF93DF93EC01888120
:1001D000882331F021960E949E0089918111FBCFE6
:1001E000DF91CF910895FC01029691838083F7837C
:1001F000E683938382839583848311861086128A93
:1002000008950F931F93CF93DF93C8E1D1E006EDDC
:1002100011E0CE010E94F3006396C017D107C9F721
:10022000DF91CF911F910F910895CF93DF93DC0160
:100230001496ED91FC911597C481D581998388839B
:10024000CF01029611969C938E93B583A483139647
:10025000DC93CE93129782898F5F828BDF91CF914F
:100260000895E6EDF1E088ED91E091838083F783D6
:10027000E6839383828395838483118610868FEF30
:10028000828783878487858786878787808B818B12
:10029000128A0895BF92CF92DF92EF92FF920F934E
:1002A0001F93CF93DF936C01B62E8C01EC01649603
:1002B0007C018EE1E80EF11C84E190E00E94C90A05
:1002C000F801819391938F01199219861C8ACE159A
:1002D000DF0591F7F601B0A6DF91CF911F910F9145
:1002E000FF90EF90DF90CF90BF900895CF93DF9372
:1002F000FC01EB01A981BA8112969C91292F30E073
:10030000DF01A20FB31F99969C91911112C0D901E0
:10031000AA0FBB1FAE0FBF1F0D90BC91A02D6D93F8
:100320007C93E20FF31F148A168E81A58F5F81A73D
:1003300029C09A3038F5DF01A20FB31F5E968C9169
:100340008F5F8A3030F4DF01A20FB31F5E968C936B
:1003500005C0DF01A20FB31F5E961C92E901CC0F0E
:10036000DD1FCE0FDF1FE20FF31FA68DB0E0AA0F37
:10037000BB1F88819981A80FB91F6D937C9381A5BC
:100380008F5F81A7DF91CF910895AF92BF92CF92F7
:10039000DF92EF92FF920F931F93CF93DF93FC01B5
:1003A000F89490A5992329F0915090A7789481E032
:1003B00027C0F72EE62ED52EC42EB32EA22EEF0187
:1003C000E091B902F091BA02668177816D5E7F4F4C
:1003D000CE010E9476012A2D3B2D4C2D5D2D6E2DD8
:1003E0007F2D80E090E00E94F505F89488A5882391
:1003F00029F0815088A7789481E002C0789480E049
:10040000DF91CF911F910F91FF90EF90DF90CF90F0
:10041000BF90AF900895FC0191A5911108C0DF0134
:100420009A9621E030E09D91992381F102C020E06D
:1004300030E0DF01A20FB31F54968C9141E0480FCA
:100440004A3030F4DF01A20FB31F54964C9305C01D
:10045000DF01A20FB31F54961C92DF01A20FB31F3E
:10046000915099969C93220F331FE20FF31F90E057
:10047000880F991F0190F081E02DE80FF91F01907E
:10048000F081E02D10828E2F9F2F08952F5F3F4F18
:100490002A30310541F680E090E00895CF93DF9354
:1004A000F894FC0120A52F5F20A70E940B02EC010D
:1004B000892B71F0E981FA8187819085865D914071
:1004C00039F4CF010E94EF0489819A810E942505A9
:1004D0007894DF91CF91089532E320E180E090E0BD
:1004E000019682339105E1F730934C0210924D0250
:1004F00010924E0210924F0210925002109251022E
:1005000010925202109253028BB382278BBBE6CF1C
:10051000CF93C82F0E94010124E044E552E066E336
:1005200072E08CE692E00E9455041092760189E315
:1005300092E09093BA028093B9020E94A9020E94AD
:1005400031018C2F0E943B0ACF91089586E392E0FF
:100550000895CF93DF93A9EEB1E0C1E3D2E021EF9C
:1005600031E0F90192E08FEF1D921D92999310A254
:1005700011A212A213A214A215A216A217A280837E
:10058000818382838383848385838683878338966C
:10059000A217B30749F710923502DF91CF91089562
:1005A0003F924F925F926F927F928F929F92AF9203
:1005B000BF92CF92DF92EF92FF920F931F93CF9350
:1005C000DF9300D000D0CDB7DEB7DC01402E512E36
:1005D000622E732E842E952E6C837B839091350230
:1005E000943009F48DC09F5F909335028091310261
:1005F000823029F180913202823091F08091330271
:100600008230A9F080913402823009F07BC00F2E35
:10061000F3E03F2EF02DE3E0F0E0FA83E98312C02F
:1006200033243394E1E0F0E0FA83E9830BC068946B
:10063000332431F8E2E0F0E0FA83E98303C01A8260
:100640001982312C89819A81880F991F87519E4F79
:10065000FC01B183A083A981BA81AF5CBD4FEC924C
:10066000A981BA81AA0FBB1FAA0FBB1FAA0FBB1F6C
:10067000AF50BE4F242D352D462D572D682D792D89
:100680008C819B81A0901001B0901101C09012014B
:10069000D0901301E0901401F09015010091160123
:1006A000109117010E94AB0A2C9311963C9311975D
:1006B00012964C93129713965C93139714966C931F
:1006C000149715967C93159716968C9316971796F4
:1006D0009C93E981FA81EE0FFF1FEE0FFF1FEE0FD3
:1006E000FF1FEF5EFD4F40825182628273828482DF
:1006F00095828C8186839B81978381E0830D03C0E3
:1007000080E001C080E00F900F900F900F90DF917C
:10071000CF911F910F91FF90EF90DF90CF90BF90FE
:10072000AF909F908F907F906F905F904F903F9091
:1007300008959F92AF92BF92CF92DF92EF92FF9275
:100740000F931F93CF93DF931F92CDB7DEB7102C7B
:1007500019828981843008F09BC00F2EF3E09F2E10
:10076000F02DE981F0E0EF5CFD4F8081833009F4EA
:1007700088C0E981F0E0EF5CFD4F8081823009F4B0
:1007800080C0E981F0E0EE0FFF1FEE0FFF1FEE0FBC
:10079000FF1FEF50FE4F20813181428153816481E0
:1007A0007581A0901001B0901101C0901201D090FD
:1007B0001301E0901401F0901501009116011091C1
:1007C0001701868197810E94C00A09F05AC0E98109
:1007D000F0E0EE0FFF1FE751FE4F0190F081E02D9A
:1007E0000995E981F0E0EF5CFD4F8081811106C041
:1007F000E981F0E0EF5CFD4F908243C0E981A9817F
:10080000F0E0EE0FFF1FEE0FFF1FEE0FFF1FEF5088
:10081000FE4FB0E0AA0FBB1FAA0FBB1FAA0FBB1F42
:10082000AF5EBD4F2C9111963C91119712964C9151
:10083000129713965C91139714966C9114971596D2
:100840007C91159716968C91169717969C91A0906F
:100850001001B0901101C0901201D0901301E090EE
:100860001401F090150100911601109117010E94DA
:10087000AB0A2083318342835383648375838683E9
:10088000978389818F5F89838981843008F469CF58
:100890000F90DF91CF911F910F91FF90EF90DF901C
:1008A000CF90BF90AF909F900895FB01BA016D5912
:1008B0007F4F7183608322830296DA01AE59BF4F66
:1008C0009C93A081B1818C93A081B181139782E820
:1008D0008C93A081B181929783E38C9380819181E5
:1008E000839791838083F287E18783E1289F90013A
:1008F0001124285E3E4F30872783F58BE48B8FEFE2
:10090000838BCF0103960E9415010895E091B902EF
:10091000F091BA02868197810895CF93DF93109268
:10092000B80280912A01882309F450C007C0AC01A5
:1009300035A13323C9F12093B80202C040E050E052
:1009400083E1849FF001859FF00D1124DF01A85EF3
:10095000BE4FCD91DC911197888199818D939C93A5
:10096000E65EFE4F8E179F07B9F423E1249FD00166
:10097000259FB00D1124A85EBE4F382F292F02C02D
:10098000E32FF22F0190F081E02D1196FC93EE936E
:100990008E179F07A9F301C0FC01F093BA02E09300
:1009A000B9028681978118C02F5F019673962A300D
:1009B00009F0BDCF8AE08093B80289E392E090937A
:1009C000BA028093B90286E392E006C0E8E1F1E062
:1009D00081E090E021E0ABCFDF91CF910895FC0161
:1009E000F894892B39F4E091B902F091BA020680AB
:1009F000F781E02DA781B0852D913C911197CF0112
:100A000003962817390721F4858196818D939C934D
:100A1000A581B681838194818D939C93A381B481B8
:100A20008581968113969C938E93129716821582D8
:100A300014821382A781B08552968C91529781506F
:100A400052968C93108617820895CF93DF93FC0102
:100A5000F8948281682F70E023E1829FC001112405
:100A6000885E9E4F278130852817390711F47894C6
:100A70002BC0AF014D5F5F4F83E1869F9001879F41
:100A8000300D1124D901A85EBE4F1496CD91DC9192
:100A9000159759834883265E3E4F348323831596EA
:100AA0005C934E931497D683C5839281899FC0012E
:100AB0001124885E9E4F9087878352968C9152971F
:100AC0008F5F52968C937894DF91CF9108954F92D7
:100AD0005F926F927F928F929F92AF92BF92CF92CE
:100AE000DF92EF92FF920F931F93CF93DF93DC017E
:100AF00018964C90189719965C9019971A966C90C6
:100B00001A971B967C901B971C968C901C971D9691
:100B10009C901D971E96DC911E971F96CC911F9757
:100B2000E091D601F091D701A084B184C284D3842E
:100B3000E484F58406851785242D352D462D572D03
:100B4000682D792D8D2F9C2F0E94C00A09F020F569
:100B50008081918111969C938E93C081D181BB83BA
:100B6000AA831396FC93EE931297B183A08380918E
:100B7000D6019091D7018E179F0721F4B093D7012A
:100B8000A093D601E6EDF1E082898F5F828B159606
:100B9000FC93EE93149718C00280F381E02DA0849B
:100BA000B184C284D384E484F58406851785242D1A
:100BB000352D462D572D682D792D8D2F9C2F0E9478
:100BC000C00A09F048F7C4CFDF91CF911F910F9170
:100BD000FF90EF90DF90CF90BF90AF909F908F905D
:100BE0007F906F905F904F900895AF92BF92CF9299
:100BF000DF92EF92FF920F931F93CF93DF93EC015D
:100C0000B22FA32FF42FE52F862F972FF89420973C
:100C100039F4C091B902D091BA020E80DF81C02DA3
:100C2000202F312F4B2F5A2F6F2F7E2FA090100186
:100C3000B0901101C0901201D0901301E090140106
:100C4000F090150100911601109117010E94AB0A56
:100C50002B873C874D875E876F87788B898B9A8B34
:100C6000CE010E94EF04CE0103960E9467050E9408
:100C7000E206DF91CF911F910F91FF90EF90DF90EF
:100C8000CF90BF90AF900895CF93DF93FC01C581C3
:100C9000D681A6EDB1E01196DC93CE9388ED91E07C
:100CA000998388838581968115969C938E9314975A
:100CB000148213821682158252968C91529781501B
:100CC00052968C9310861782DF91CF9108958F9260
:100CD0009F92AF92BF92CF92DF92EF92FF920F93CB
:100CE0001F93CF93DF932091100130911101409118
:100CF00012015091130160911401709115018091BE
:100D0000160190911701A1E00E94B40A20931001EE
:100D10003093110140931201509313016093140119
:100D2000709315018093160190931701E091E801EB
:100D3000EE23D9F1C091D601D091D701A884B9840E
:100D4000CA84DB84EC84FD840E851F850E94C00A62
:100D500061F50F2EF6ED8F2EF1E09F2EF02D8E8196
:100D60009F810E9444068E819F810E942505F40187
:100D7000C081D181288539854A855B856C857D85D3
:100D8000A0901001B0901101C0901201D0901301F9
:100D9000E0901401F09015010091160110911701D7
:100DA0008E859F850E94C00AD1F2DF91CF911F915D
:100DB0000F91FF90EF90DF90CF90BF90AF909F90FA
:100DC0008F900895F8940F920FB60F921F922F9262
:100DD0003F924F925F926F927F928F929F92AF92CB
:100DE000BF92CF92DF92EF92FF920F931F932F93B8
:100DF0003F934F935F936F937F938F939F93AF93A3
:100E0000BF93CF93DF93EF93FF930E948604A82FA5
:100E1000B92F0DB61EB60D921C9200E0102E0E9446
:100E20008D04A82FB92F0D901C900DBE1EBE000082
:100E3000FF91EF91DF91CF91BF91AF919F918F91F2
:100E40007F916F915F914F913F912F911F910F91E2
:100E5000FF90EF90DF90CF90BF90AF909F908F90DA
:100E60007F906F905F904F903F902F901F900F90CA
:100E70000FBE0F9018959BB380E189278BBB089517
:100E80009BB380E289278BBB08959BB380E48927BD
:100E90008BBB08958BB380588BBB0895C0E00F2E99
:100EA000F2E3CF2ED12CE12CF12CF02DDDEC80E003
:100EB00090E0019682339105E1F7C092B703D0929A
:100EC000B803E092B903F092BA03CF5FCD9F812DB2
:100ED0001124869586958695880F982F990F990FDE
:100EE000890FC813E4CF08E813E120E030E040E0C8
:100EF00050E060E070E08DEA96E00E94C50181302C
:100F0000B1F686E690E00E94E4008DEA96E00E9449
:100F10004E02CDCFC0E00F2EF2E3CF2ED12CE12C2C
:100F2000F12CF02DDDEC80E090E00196823391050C
:100F3000E1F7C092D102D092D202E092D302F092B5
:100F4000D402CF5FCD9F812D1124869586958695FD
:100F5000880F982F990F990F890FC813E4CF08E8CD
:100F600013E120E030E040E050E060E070E08DEA26
:100F700096E00E94C5018130B1F687E790E00E94BB
:100F8000E4008DEA96E00E944E02CDCFC0E00F2E25
:100F9000F2E3CF2ED12CE12CF12CF02DDDEC80E012
:100FA00090E0019682339105E1F7C092D502D0928C
:100FB000D602E092D702F092D802CF5FCD9F812D6A
:100FC0001124869586958695880F982F990F990FED
:100FD000890FC813E4CF08E813E120E030E040E0D7
:100FE00050E060E070E08DEA96E00E94C50181303B
:100FF000B1F688E890E00E94E4008DEA96E00E9455
:101000004E02CDCFC0E00F2EF2E3CF2ED12CE12C3B
:10101000F12CF02DDDEC80E090E00196823391051B
:10102000E1F7C092D502D092D602E092D702F092B8
:10103000D802CF5FCD9F812D112486958695869508
:10104000880F982F990F990F890FC813E4CF08E8DC
:1010500013E120E030E040E050E060E070E08DEA35
:1010600096E00E94C5018130B1F689E990E00E94C6
:10107000E4008DEA96E00E944E02CDCFC0E00F2E34
:10108000F2E3CF2ED12CE12CF12CF02DDDEC80E021
:1010900090E0019682339105E1F7C092D502D0929B
:1010A000D602E092D702F092D802CF5FCD9F812D79
:1010B0001124869586958695880F982F990F990FFC
:1010C000890FC813E4CF08E813E120E030E040E0E6
:1010D00050E060E070E08DEA96E00E94C50181304A
:1010E000B1F68AEA90E00E94E4008DEA96E00E9460
:1010F0004E02CDCFC0E00F2EF2E3CF2ED12CE12C4B
:10110000F12CF02DDDEC80E090E00196823391052A
:10111000E1F7C092D502D092D602E092D702F092C7
:10112000D802CF5FCD9F812D112486958695869517
:10113000880F982F990F990F890FC813E4CF08E8EB
:1011400013E120E030E040E050E060E070E08DEA44
:1011500096E00E94C5018130B1F68BEB90E00E94D1
:10116000E4008DEA96E00E944E02CDCFC0E00F2E43
:10117000F2E3CF2ED12CE12CF12CF02DDDEC80E030
:1011800090E0019682339105E1F7C092D502D092AA
:10119000D602E092D702F092D802CF5FCD9F812D88
:1011A0001124869586958695880F982F990F990F0B
:1011B000890FC813E4CF08E813E120E030E040E0F5
:1011C00050E060E070E08DEA96E00E94C501813059
:1011D000B1F68CEC90E00E94E4008DEA96E00E946B
:1011E0004E02CDCFC0E00F2EF2E3CF2ED12CE12C5A
:1011F000F12CF02DDDEC80E090E00196823391053A
:10120000E1F7C092D502D092D602E092D702F092D6
:10121000D802CF5FCD9F812D112486958695869526
:10122000880F982F990F990F890FC813E4CF08E8FA
:1012300013E120E030E040E050E060E070E08DEA53
:1012400096E00E94C5018130B1F68DED90E00E94DC
:10125000E4008DEA96E00E944E02CDCFC0E00F2E52
:10126000F2E3CF2ED12CE12CF12CF02DDDEC80E03F
:1012700090E0019682339105E1F7C092D502D092B9
:10128000D602E092D702F092D802CF5FCD9F812D97
:101290001124869586958695880F982F990F990F1A
:1012A000890FC813E4CF08E813E120E030E040E004
:1012B00050E060E070E08DEA96E00E94C501813068
:1012C000B1F68EEE90E00E94E4008DEA96E00E9476
:1012D0004E02CDCFC0E00F2EF2E3CF2ED12CE12C69
:1012E000F12CF02DDDEC80E090E001968233910549
:1012F000E1F7C092D502D092D602E092D702F092E6
:10130000D802CF5FCD9F812D112486958695869535
:10131000880F982F990F990F890FC813E4CF08E809
:1013200013E120E030E040E050E060E070E08DEA62
:1013300096E00E94C5018130B1F68FEF90E00E94E7
:10134000E4008DEA96E00E944E02CDCF8FEF8ABB7B
:101350000E94C60081E00E94880261E08DEA96E06A
:101360000E944A0121E049EB55E060EE76E08EE410
:1013700097E00E94550421E043E356E06BED74E0F2
:101380008AE897E00E94550421E046EF56E069EDB7
:1013900072E086EC97E00E94550421E043E553E0BB
:1013A00063E874E082E098E00E94550421E04FEE8B
:1013B00052E065EC74E08EE398E00E94550421E071
:1013C0004FE154E067E976E08AE798E00E9455042F
:1013D00021E041EF54E06BEB72E086EB98E00E9475
:1013E000550421E04BEB53E069E974E082EF98E0AB
:1013F0000E94550421E04AE557E06FEA74E08EE26E
:1014000099E00E94550421E045E555E06DE176E064
:101410008AE699E00E945504EE24E39404EF11E07B
:1014200020E030E040E050E060E070E08BE397E0E7
:101430000E94D00220E030E040E050E060E070E048
:1014400080E497E00E94D00220E030E040E050E0ED
:1014500060E070E085E497E00E94D00220E030E098
:1014600040E050E060E070E08AE497E00E94D00243
:101470000E944900FFCF93B713BE93B79D6093BFFF
:10148000803238F4982F990F990F990F981B9CBFB1
:1014900002C08FE18CBF89B7826089BF08950F9227
:1014A0000FB60F921F922F923F924F925F926F92C0
:1014B0007F928F929F92AF92BF92CF92DF92EF92E4
:1014C000FF920F931F932F933F934F935F936F93CD
:1014D0007F938F939F93AF93BF93CF93DF93EF93BC
:1014E000FF930E948604A82FB92F0DB61EB60D9249
:1014F0001C920E9467060E94990300E0102E0E9431
:101500008D04A82FB92F0D901C900DBE1EBE00009B
:10151000FF91EF91DF91CF91BF91AF919F918F910B
:101520007F916F915F914F913F912F911F910F91FB
:10153000FF90EF90DF90CF90BF90AF909F908F90F3
:101540007F906F905F904F903F902F901F900F90E3
:101550000FBE0F9018952A0D3B1D4C1D5D1D6E1D75
:101560007F1D801F911F08950024A7FD00942A0F5E
:10157000301D401D501D601D701D801D901D089563
:101580002A153B054C055D056E057F058007910713
:1015900008950F931F93CF93DF938230910510F43A
:1015A00082E090E0E091C007F091C10720E030E0D8
:1015B000A0E0B0E0309719F14081518102811381A0
:1015C00048175907C8F08417950769F4109731F048
:1015D00012960C93129713961C9327C00093C00782
:1015E0001093C10722C02115310519F04217530786
:1015F00018F49A01BD01EF01DF01F801DBCF2115DD
:101600003105F9F0281B390B2430310580F48A812B
:101610009B816115710521F0FB019383828304C0D6
:101620009093C1078093C007FE01329644C0FE012B
:10163000E20FF31F8193919322503109398328835C
:101640003AC02091BE073091BF07232B41F420916F
:101650006200309163003093BF072093BE07209152
:101660006000309161002115310541F42DB73EB77E
:101670004091640050916500241B350BE091BE073A
:10168000F091BF07E217F307A0F42E1B3F0B2817BA
:10169000390778F0AC014E5F5F4F2417350748F0EB
:1016A0004E0F5F1F5093BF074093BE0781939193E6
:1016B00002C0E0E0F0E0CF01DF91CF911F910F91E8
:1016C0000895CF93DF93009709F481C0FC0132970E
:1016D00013821282A091C007B091C107109781F4C4
:1016E00020813181820F931F2091BE073091BF0767
:1016F0002817390751F5F093BF07E093BE0767C07D
:10170000ED0120E030E0CE17DF0740F44A815B8135
:101710009E0141155105F1F0EA01F5CFD383C28353
:1017200040815181840F951FC817D90759F48881CA
:101730009981840F951F0296918380838A819B8172
:10174000938382832115310529F4F093C107E09337
:10175000C0073DC0E901FB83EA8349915991C40F59
:10176000D51FEC17FD0761F480819181840F951FCF
:101770000296E90199838883828193819B838A837E
:10178000E0E0F0E012968D919C911397009719F08C
:10179000FD01DC01F7CF8D919C9111979D012E5F8A
:1017A0003F4F820F931F2091BE073091BF0728172C
:1017B000390769F4309729F41092C1071092C007D5
:1017C00002C013821282B093BF07A093BE07DF91BD
:0817D000CF910895F894FFCFBA
:1017D8000000C20720002A2A2A2A54687265616418
:1017E800312A2A2A2A2A002A2A2A2A546872656152
:1017F80064322A2A2A2A2A002A2A2A2A546872653E
:101808006164332A2A2A2A2A002A2A2A2A54687230
:10181800656164342A2A2A2A2A002A2A2A2A54682C
:1018280072656164352A2A2A2A2A002A2A2A2A5411
:101838006872656164362A2A2A2A2A002A2A2A2AEC
:10184800546872656164372A2A2A2A2A002A2A2AB1
:101858002A546872656164382A2A2A2A2A002A2AA0
:101868002A2A546872656164392A2A2A2A2A002A8F
:101878002A2A2A54687265616431302A2A2A2A0081
:00000001FF
